:020000040800F2
:10000000F8230020B91700082D0300082F0300086B
:1000100033030008370300083B030008000000001A
:100020000000000000000000000000003F03000886
:1000300041030008000000004303000845030008D6
:10004000D3170008D3170008D3170008D3170008E8
:10005000D3170008D3170008D3170008D3170008D8
:10006000D3170008D3170008D3170008D3170008C8
:10007000D3170008D3170008D3170008D3170008B8
:10008000D3170008D3170008D3170008D3170008A8
:10009000D3170008D3170008D3170008D317000898
:1000A000D3170008D3170008D3170008D317000888
:1000B000D3170008D3170008D3170008D317000878
:1000C000D3170008D3170008D3170008D317000868
:1000D000D317000823110008D3170008D31700080E
:1000E000D3170008D3170008D3170008D317000848
:1000F000D3170008D3170008D3170008D317000838
:10010000D3170008D3170008D3170008D317000827
:10011000D3170008D3170008D3170008D317000817
:10012000D3170008D3170008D3170008D317000807
:10013000D3170008D3170008D3170008D3170008F7
:10014000D3170008D3170008D3170008D3170008E7
:10015000D3170008D3170008D3170008D3170008D7
:10016000D3170008D3170008D3170008D3170008C7
:10017000D3170008D3170008D3170008D3170008B7
:10018000D3170008D317000800F002F800F04CF86D
:100190000AA090E8000C82448344AAF10107DA45E2
:1001A00001D100F041F8AFF2090EBAE80F0013F0E8
:1001B000010F18BFFB1A43F001031847C85900008C
:1001C000E8590000103A24BF78C878C1FAD852071D
:1001D00024BF30C830C144BF04680C6070470000C1
:1001E0000023002400250026103A28BF78C1FBD840
:1001F000520728BF30C148BF0B607047662905F021
:100200004C83642902F01882002070471FB505F066
:100210003AFB02F085FD04000020002104F038FDC7
:10022000E0601FBD10B510BD02F096FE1146FFF74D
:10023000EDFF00F009F802F0B4FE03B4FFF7F2FF9F
:1002400003BC00F00FFF000000F086F94FF4A0603F
:1002500001F0D2FAA82000F083FE4FF4E13000F064
:100260000EFF00F0FAFD4CF2503000F09EFF21A08E
:1002700002F0D6F922A002F0D3F93AE02148008832
:1002800000F40040002834D000241F4804781D48A2
:1002900001781D4800F078FF0546012C02D0022CA1
:1002A00022D108E0284600F080FF642000F0BAFE6A
:1002B00000F0CDFF18E015A002F0B2F910A002F096
:1002C000AFF901F019FA00BF134800780028FBD0FD
:1002D00012A002F0A5F90AA002F0A2F9124801F05A
:1002E000CFF800200C49087000BF002005490880A5
:1002F00000BFC3E774372E7478743D226462220015
:10030000FFFFFF0084000020B00000206E302E763A
:10031000616C3D3100000000860000206E302E76BA
:10032000616C3D300000000078010020704700BF84
:10033000FEE700BFFEE700BFFEE700BFFEE7704735
:1003400070477047704700000CB500200190009086
:100350007648006840F480307449086000BF7348F4
:10036000006800F4003000900198401C0190009853
:1003700018B90198B0F5A04FF1D16C48006800F4AD
:10038000003010B10120009001E0002000900098A2
:10039000012846D165484030006840F080506349EC
:1003A000403108606248006840F44040604908609D
:1003B0005E48083000685D490831086008460068FA
:1003C00040F4004008600846006840F4A05008600F
:1003D0005848091F0860081F006840F08070091F16
:1003E000086000BF5148006800F000700028F9D094
:1003F00040F20570504908604C480830006820F011
:1004000003004A49083108600846006840F00200CD
:10041000086000BF45480830006800F00C0008285C
:10042000F8D10CBD10B54548006840F47000434950
:1004300008603E48006840F001003C490860002028
:100440003A4908310860394800683D490840374951
:1004500008603C48091D0860081F006820F48020DF
:10046000091F0860002031490C310860FFF76CFF5C
:100470004FF0006031498039086010BD70B5002030
:100480000022022300240221284D08352D6805F0A2
:100490000C0020B1042806D0082834D107E02A4DEA
:1004A0002A4E356033E02A4D284E35602FE01F4D2F
:1004B0002D1D2D68C5F380541C4D2D1D2D6805F094
:1004C0003F0154B1224DB5FBF1F5184E361D36688B
:1004D000C6F3881605FB06F209E01B4DB5FBF1F5E6
:1004E000124E361D3668C6F3881605FB06F20F4D10
:1004F0002D1D2D68C5F301456D1C6B00B2FBF3F596
:10050000124E356003E0104D104E356000BF00BF45
:10051000064D08352D68C5F303150E4E705D0B4D65
:100520002D68C540094E356070BD0000003802409E
:100530000070004008544007003C024088ED00E095
:10054000FFFFF6FE103000240024F400000000201D
:1005500000127A00040000201CB50121022001F0E5
:1005600009FF4FF44070009001208DF80400002036
:100570008DF8060003208DF8050001208DF8070096
:100580006946024801F02EFA1CBD0000000402403A
:1005900010B54FF48071FE4801F0A0FA4FF40071DD
:1005A000FB4801F09BFA0F2000F0F4FC4FF40071BF
:1005B000F74801F095FA0F2000F0ECFC4FF4807141
:1005C000F34801F08DFA0F2000F0E4FC10BD10B5E7
:1005D0004FF40071EE4801F083FA0F2000F0DAFCCE
:1005E0004FF48071EA4801F079FA0F2000F0D2FC54
:1005F0004FF40071E64801F071FA0F2000F0CAFCD8
:1006000010BD10B54FF40071E14801F069FA052002
:1006100000F0C0FC052000F0BDFC4FF48071DC4808
:1006200001F05CFA0F2000F0B5FC4FF48071D8485F
:1006300001F056FA052000F0ADFC052000F0AAFC00
:100640004FF40071D24801F049FA0F2000F0A2FCEB
:1006500010BD10B54FF40071CD4801F03FFA0520F0
:1006600000F098FC052000F095FC4FF48071C8481C
:1006700001F034FA0F2000F08DFC4FF48071C44873
:1006800001F02EFA052000F085FC052000F082FC28
:100690004FF40071BE4801F023FA0F2000F07AFCFD
:1006A00010BD10B54FF40071B94801F017FA0520DC
:1006B00000F070FC052000F06DFC4FF48071B44830
:1006C00001F00CFA052000F065FC052000F062FC4A
:1006D000B0480068052000F05DFC052000F05AFCE1
:1006E0004FF40071AA4801F0DFF904464FF480711D
:1006F000A74801F0F5F90F2000F04CFCA648D0F80F
:10070000A4020CB1002010BD0120FCE770B5044626
:10071000002523E004F0800028B14FF400719C48CC
:1007200001F0DCF904E04FF40071994801F0D8F9C8
:100730000F2000F02FFC4FF48071954801F0CEF9A6
:100740000F2000F027FC4FF48071914801F0C8F9A8
:100750000F2000F01FFC6006040E6D1C082DD9DB75
:100760004FF400718A4801F0B9F9052000F012FC3D
:10077000052000F00FFC70BD70B504460D46002644
:100780000CE02078FFF7C2FFFFF78BFF08B1641C75
:1007900003E0FFF71CFFFF2070BD761CAE42F0DBCC
:1007A000FFF715FF0120F7E770B50024002629E0C8
:1007B0004FF40071764801F091F90F2000F0EAFB48
:1007C0004FF48071724801F089F9724800680F2077
:1007D00000F0E0FB4FF400716D4801F065F905464B
:1007E0006006040E0DB144F001046A4880300068D0
:1007F0004FF48071664801F073F90F2000F0CAFBD6
:10080000701CC6B2082ED3DB204670BD70B50646FC
:100810000D4600240DE0FFF7C7FF46F82400681ED0
:10082000A04202D1FFF715FF01E0FFF7EAFE601CCE
:10083000C4B2AC42EFDBFFF7CAFE70BD70B505462F
:100840000121022001F096FD0121022001F092FD1C
:1008500050487C3000685048D0F8A4024FF4007132
:100860004B4801F03BF935B1012D07D0022D08D0DE
:10087000032D0CD108E04FF4804408E04FF4A0446D
:1008800005E04FF4C04402E04FF4E04400BF00BF75
:1008900004F50040E3304149086090204049087069
:1008A000012048703D480088000A88703B48007865
:1008B000C87090203B4908700020487091208870D3
:1008C00070BD10B5FFF764FE00BF04213448FFF788
:1008D00053FF0446002CF8D010BD10B5FFF758FEAA
:1008E00000BF02212F48FFF747FF0446002CF8D035
:1008F000FFF74EFE00BF01212A48801CFFF73CFF96
:100900000446002CF7D002212748FFF77FFF10BDD7
:1009100030B50446A4B10A2094FBF0F100FB11406D
:100920002249234A127841F8220021480078401CCD
:100930001F4908700A2094FBF0F52846FFF7E8FFEE
:1009400030BD10B52DED068B04462046FFF776FF2F
:10095000FFF7B7FF012000F065FBFFF7BEFF12486D
:100960004168006801EB002012490860002010492E
:10097000087010480068FFF7CBFF0E48006804F0CD
:1009800080FC41EC1A0B9FED0C0B53EC102B17E085
:1009900000040240248240420080404214000020B3
:1009A000180000201C000020200000209C000020D7
:1009B0003000002028000020FA7E6ABC74931840A2
:1009C00004F0C6FC41EC190B9FED3F0B53EC102BD0
:1009D00004F066FA41EC180B04F07CF93C4908601D
:1009E000BDEC068B10BD2DE9F0412DED028B98B0CA
:1009F00080460A269FED370AF0EE408A00250FE078
:100A00000F2000F0C7FA4046FFF79BFF304890EDFB
:100A1000000A684600EB850080ED000A681CC5B23C
:100A2000B542EDDB00272CE0002425E0684600EB12
:100A3000840090ED000A6946601C01EB8000D0ED57
:100A4000000AB4EEE00AF1EE10FA13DD684600EB9E
:100A5000840090ED008A601C01EB800090ED000A9C
:100A6000684600EB840080ED000A601C01EB80000A
:100A700080ED008A601CC4B2F01BA042D6DC781C5A
:100A8000C7B2B742D0DB01250AE0684600EB85001B
:100A900090ED000A30EE280AF0EE408A681CC5B2DC
:100AA000701EA842F1DCB01E00EE100AB8EEC00ABB
:100AB000C8EE800A0648C0ED000A90ED000A18B0A2
:100AC000BDEC028BBDE8F081000000000000E040BA
:100AD0002C0000200000000000EB4001880000BF57
:100AE0000100A0F10100FBD1704700B50020FE49D4
:100AF00008600420FFF7F0FF0120FC49C1F88002E4
:100B00000420FFF7E9FF0020F749086000BD2DE948
:100B1000F04705460E46174698464FF00009CA466C
:100B200000240023A9460020EF4908310860EF495E
:100B3000C1F88C0200BF1DE00020EB4908310860BD
:100B400009F08000802804D10120E74910310860B5
:100B500003E00020E449103108600120E249083137
:100B600008604FEA49604FEA10690220FFF7B4FFBE
:100B7000581CC3B2082BDFDB0020DB4908310860BA
:100B8000002429E017F804A000231DE00020D64926
:100B9000083108600AF08000802804D10120D24981
:100BA0001031086003E00020CF49103108600120B7
:100BB000CD49083108604FEA4A604FEA106A0220C6
:100BC000FFF78AFF581CC3B2082BDFDB0020C649A1
:100BD00008310860601CC4B2B442D3DBB8F1010F25
:100BE00001D1FFF782FF0120BF490C310860BDE849
:100BF000F08778B504460E460020009046F48055F4
:100C0000E8B28DF8020028128DF8010064B90023C3
:100C1000B74A01211846FFF77AFF01236A460321EC
:100C20000620FFF774FF2BE0012C0CD10023B14A02
:100C300001211846FFF76BFF01236A4603210620B6
:100C4000FFF765FF1CE0022C0CD10023AA4A01210A
:100C50001846FFF75CFF01236A4603210620FFF7D1
:100C600056FF0DE0032C0BD10023A44A01211846A6
:100C7000FFF74DFF01236A4603210620FFF747FFD8
:100C800078BD70B504460D46002600EE105AF8EE09
:100C9000400A9FED9B1A80EE810ADFED9A0A20EE52
:100CA000200ABCEEC00A10EE100A86B296494E70B9
:100CB0003012087064B900238D4A01211846FFF7ED
:100CC00026FF0123904A02210520FFF720FF2BE099
:100CD000012C0CD10023874A01211846FFF717FF8A
:100CE0000123894A02210520FFF711FF1CE0022C95
:100CF0000CD10023804A01211846FFF708FF012389
:100D0000814A02210520FFF702FF0DE0032C0BD1E1
:100D100000237A4A01211846FFF7F9FE01237A4A97
:100D200002210520FFF7F3FE70BD70B52DED048B99
:100D300082B004460E4600200190304604F0B8FA16
:100D400041EC190B9FED710B53EC102B04F000FBE1
:100D500041EC180B04F068FA0546E8B28DF807007C
:100D6000280A8DF80600280C8DF80500280E8DF84D
:100D7000040064B900235E4A01211846FFF7C7FE4C
:100D8000012301AA04210846FFF7C1FE2BE0012C34
:100D90000CD10023574A01211846FFF7B8FE012362
:100DA00001AA04210846FFF7B2FE1CE0022C0CD178
:100DB0000023514A01211846FFF7A9FE012301AA89
:100DC00004210846FFF7A3FE0DE0032C0BD10023FE
:100DD0004A4A01211846FFF79AFE012301AA04217D
:100DE0000846FFF794FE02B0BDEC048B70BD00B561
:100DF00000203D49091D08600120FFF76DFE01201C
:100E00003A49C1F884021E20FFF766FE00203649E9
:100E1000091D086000BD00203E49086001203349DB
:100E2000C1F88C0200203049083108602E49086062
:100E300038491C390860091D0860091D0860091D32
:100E4000086029491031086032490C390860091DD1
:100E500008603149C1F8980270470EB52FA00068AC
:100E600000900121092001F085FAFF200190012066
:100E70008DF8080000208DF80A0003208DF8090085
:100E800001208DF80B0001A9254800F0ABFD1F20C3
:100E9000019001208DF8080000208DF80A00032041
:100EA0008DF8090001208DF80B0001A91D4800F004
:100EB00099FDFFF7B0FFFFF79AFF01236A46032170
:100EC0001846FFF724FE1848C1680320FFF72DFFDE
:100ED000154881680220FFF728FF1448808981B2F5
:100EE0000320FFF7CEFE23E0808241420080414292
:100EF000340000203500002036000020370000209C
:100F00000000B443000080463D00002095D626E84E
:100F10000B2E21409C02404200004042D0000000C5
:100F200000000240000C02404C0000206C00002039
:100F30000948008981B20220FFF7A3FE0748808993
:100F400081B20320FFF755FE0448008981B20220D8
:100F5000FFF74FFE0EBD00006C0000205C0000207B
:100F600010B504466FF0040000F098FCE11704EBA4
:100F70005171C1F3C701394A11701046007800EB76
:100F80004001C1EBC0104FF6FF7101EAC0003449C7
:100F9000088010BD0146314A12784A434FF0E023E1
:100FA0005A6100229A611A46126942F001021A61DE
:100FB00000BF4FF0E022106900F001021AB100F406
:100FC0008032002AF5D04FF0E022126922F00102AF
:100FD0004FF0E0231A6100229A6170470146204ACF
:100FE00012884A434FF0E0235A6100229A611A4660
:100FF000126942F001021A6100BF4FF0E02210694D
:1010000000F001021AB100F48032002AF5D04FF04E
:10101000E022126922F001024FF0E0231A6100225F
:101020009A61704770B504464FF4077094FBF0F076
:10103000C6B24FF4077094FBF0F100FB114085B28B
:1010400005E04FF40770FFF7C9FF701EC6B2002E0F
:10105000F7D115B12846FFF7C1FF70BD7C00002015
:101060007E00002000BF704700BF434A128802F094
:101070004002002AF9D0C2B23F4B9A80704710B5A7
:1010800088B004460121084601F074F901211020BE
:1010900001F0CAF907220921384800F02EFD072285
:1010A0000A21364800F029FD4FF4C0600690022066
:1010B0008DF81C008DF81D0000208DF81E00012009
:1010C0008DF81F0006A92D4800F08CFC029400202A
:1010D000ADF80C00ADF80E00ADF81000ADF814003E
:1010E0000C20ADF8120002A9234800F0A6FD012152
:1010F000214800F02AFE012240F225511E4800F04E
:10110000DAFE25208DF8040003208DF805008DF807
:10111000060001208DF8070001A800F072FB08B05E
:1011200010BD10B540F22551134800F0FFFE10B37A
:10113000114800F039FEC4B21148008800F4804024
:1011400090B1FF2C06D10E48008840F400400C49B5
:10115000088010E00A4800780A490C5408480088C2
:10116000401C0749088006E02CB90548008840F477
:1011700080400349088010BD00100140000002407B
:1011800084000020B000002010B502460B4600206D
:10119000012107E000EB80046000545C303C2044F7
:1011A0004C1CE1B29942F5DB10BD30B52DED048B3E
:1011B00083B0054600200290FEA0006801902846FA
:1011C00004F076F841EC190B9FEDFB0B53EC102B60
:1011D00004F0BEF841EC180B04F026F80446E0B227
:1011E0008DF80B00200A8DF80A00200C8DF80900FC
:1011F000200E8DF80800002301AA01211846FFF7F0
:1012000086FC012302AA04210846FFF780FC03B0F4
:10121000BDEC048B30BD10B52DED048B044620468B
:10122000FFF7E1FBE648006804F0BCFA41EC190B5B
:101230009FEDE40B53EC102B04F0CAF941EC180BB2
:10124000B0EE480AF0EE680ABDEC048B10BD00B5A4
:101250002DED108B85B00020FFF7DDFFB0EE408A4A
:10126000F0EE608AD648006804F09CFA41EC1D0B51
:1012700053EC1D2BD5A001F0D3F9D8A001F0D0F983
:101280000320FFF7C8FFB0EE40AAF0EE60AACC48FA
:10129000006804F087FA41EC1D0B53EC1D2BCBA02A
:1012A00001F0BEF9CDA001F0BBF953EC1A2B51ECC3
:1012B000180B03F0F5FD41EC1B0BB0EE4B0AF0EE02
:1012C0006B0A02F089FAB0EE409AF0EE609A9FED58
:1012D000C40B53EC102B51EC190B04F039F841EC12
:1012E0001D0B9FEDC10B53EC102B03F0D9FDCDE985
:1012F00002010A20FFF74EFEB0EE490AF0EE690A3D
:1013000003F00AF8B0EE40FAF0EE60FA9FEDB80B89
:1013100053EC102B51EC1F0B04F01AF841EC1D0B91
:101320009FEDB50B53EC102B51EC180B04F010F89B
:1013300041EC1F0B9FEDAE0B53EC102B04F008F8A3
:1013400041EC1E0B53EC1D2B03F0AAFDCDE900016F
:101350000A20FFF71FFE9DED000B02F055FDB0EED9
:1013600040EAF0EE60EA02F03FFFB0EE40DAF0EE65
:1013700060DA9FEDA30B53EC102B51EC1D0B03F027
:10138000E7FF41EC1C0B9DED020B53EC102B9EA0D4
:1013900001F046F991A001F043F953EC1C2B9EA0FB
:1013A00001F03EF98DA001F03BF905B0BDEC108BCA
:1013B00000BD38B505460C469B48008820B99A48C0
:1013C00005809A48048038BD25B91CB9964805881F
:1013D000964804882B4695480094028892480188D4
:1013E00093A001F01DF97DA001F01AF98E48058047
:1013F0008E48048000BFE6E770B52DED088BB0EE97
:10140000408AF0EE608A044600259FED8F0B53EC76
:10141000102B51EC180B04F099F82DD89FED8C0B84
:1014200053EC102B51EC180B03F056FF24D8002C72
:1014300022DBE12C20DCA000F53005049FED840BBD
:1014400053EC102B51EC180B04F0B6F841EC1B0BCD
:101450009FED810B53EC102B03F022FD41EC1A0B96
:101460009FED7F0B53EC102B03F066FC41EC190B46
:1014700003F0DAFE80B205432846BDEC088B70BD50
:1014800070B505460026002411E005EBC40090ED80
:10149000001BB0EE410AF0EE610A2046FFF7ACFFF8
:1014A0000646B1B2300CFFF784FF601C84B2702C8A
:1014B000EBDB70BD10B52DED088B0446204603F024
:1014C000F7FE41EC1B0B9FED680B53EC102B03F068
:1014D0003FFF41EC1A0BB0EE4A0AF0EE6A0A02F046
:1014E000E7FAB0EE409AF0EE609A9FED610B53EC94
:1014F000102B51EC190B03F02BFF41EC180B03F0F0
:1015000093FEBDEC088B10BD10B52DED0C8B0020AB
:10151000FFF781FEB0EE408AF0EE608A0320FFF70D
:101520007AFEB0EE409AF0EE609A53EC192B51EC33
:10153000180B03F0B5FC41EC1A0BB0EE4A0AF0EEC2
:101540006A0A02F049F9B0EE40BAF0EE60BA9FEDD7
:10155000240B53EC102B51EC1B0B03F0F9FE41EC68
:101560001D0B9FED210B53EC102B03F099FC41EC6C
:101570001C0BB0EE4C0AF0EE6C0ABDEC0C8B10BDEF
:1015800000B52DED108B83B00020FFF744FEB0EEC8
:10159000408AF0EE608A0320FFF73DFEB0EE409AED
:1015A000F0EE609A53EC192B51EC180B03F078FC19
:1015B00062E00000C000000095D626E80B2E214016
:1015C0002C000020000000000000F83F74302E7452
:1015D00078743D22252E336C66220000FFFFFF0049
:1015E0000000000000806640A7E8482EFF21094067
:1015F0000000000000408F4000000000000000409C
:1016000000000000000034407431322E7478743DC4
:1016100022252E326C6622007431312E7478743D8E
:1016200022252E326C662200880000208A000020CD
:101630006C696E652025642C25642C25642C25643A
:101640002C5245440000000000000000000044C08F
:101650000000000000002440000000000000C03F27
:1016600000000000000037404BC8073D9B55AF3FCE
:1016700066666666E687C34041EC1A0BB0EE4A0A1E
:10168000F0EE6A0A02F0A8F8B0EE40BAF0EE60BAE6
:10169000B0EE4B0AF0EE6B0A02F03EFEB0EE40EA0E
:1016A000F0EE60EA1FED2C0B53EC102B51EC180BF5
:1016B00003F04EFE41EC1F0B53EC1E2B03F0F0FB2E
:1016C00041EC1D0BB0EE4D0AF0EE6D0A02F08CFD00
:1016D000B0EE40CAF0EE60CA1FED370B53EC102B92
:1016E00051EC1C0B03F034FECDE900019DED000B25
:1016F00003B0BDEC108B00BD70B5002425E0204682
:10170000FFF7D8FE05462846FFF74FFD4CF2503054
:10171000854201D2012000E0002022498D4201D9FA
:10172000012100E00021084318B10120FFF77AFCF5
:1017300002E00F20FFF72EFCFFF722FF1A4800EB14
:10174000C40080ED000B601C84B2B4F5E17FD6DDEF
:1017500001201649087070BD70B500241AE02046BB
:10176000FFF7A8FE05462846FFF71FFD4CF2503054
:10177000854203D20120FFF755FC02E00F20FFF75E
:1017800009FCFFF7C1FE0A4800EBC40080ED000B26
:10179000601C84B2B4F5E17FE1DD012005490870E9
:1017A00070BD0000E0930400780100208600002056
:1017B000880F00208700002009488047094800471B
:1017C000FEE7FEE7FEE7FEE7FEE7FEE7FEE7FEE7F1
:1017D000FEE7FEE704480549054A064B704700004E
:1017E0002504000889010008F81D0020F8230020C6
:1017F000F81F0020F81F002032490143324A1160CF
:10180000704770B5002100230F22C4781CB32E4C02
:10181000246804F4E064C4F5E064C4F30721C1F172
:101820000404E3B20A4144789C40E1B28478144055
:1018300021430C07210E254C05786155047804F0EE
:101840001F050124AC4005786D11AD0005F1E025C0
:10185000C5F8004109E0047804F01F050124AC40FC
:101860001B4D0678761145F8264070BD194A0A408E
:101870000243154B1B1F1A60704739B1124A121DE3
:1018800012680243104B1B1D1A6006E00E4A121D1F
:10189000126882430C4B1B1D1A607047042808D144
:1018A0004FF0E021096941F004014FF0E02211619D
:1018B00007E04FF0E021096921F004014FF0E02238
:1018C000116170470000FA050CED00E000E400E053
:1018D00080E100E080FFFF1F10B504469848844275
:1018E00008D10121084600F0B0FD0021012000F0E0
:1018F000ACFD76E09348844208D10121022000F03B
:10190000A4FD0021022000F0A0FD6AE08E48844280
:1019100008D10121042000F098FD0021042000F0EE
:1019200094FD5EE08948844208D10121082000F03E
:101930008CFD0021082000F088FD52E0844884429C
:1019400008D10121102000F080FD0021102000F0BE
:101950007CFD46E07F48844208D10121202000F030
:1019600074FD0021202000F070FD3AE07A488442A6
:1019700008D10121402000F068FD0021402000F046
:1019800064FD2EE07548844208D10121802000F0DA
:101990005CFD0021802000F058FD22E07048844268
:1019A00008D10121801500F050FD0021A01500F0A4
:1019B0004CFD16E06B48844208D10121401500F02F
:1019C00044FD0021601500F040FD0AE066488442B5
:1019D00007D10121001500F038FD0021201500F08D
:1019E00034FD10BDF0B50A4600210023002400BFDD
:1019F0003DE0012505FA01F3156805EA03049C4260
:101A000034D105684F000326BE40B5430560157903
:101A10004E00B5400668354305601579012D02D0AA
:101A20001579022D16D185684F000326BE40B543B7
:101A3000856055794E00B5408668354385604568B8
:101A400001268E40B5434560456896798E40B6B212
:101A500035434560C5684F000326BE40B543C560A9
:101A6000D5794E00B540C6683543C560491C10297C
:101A7000BFD3F0BD4FF6FF710160002101714171CC
:101A80008171C171704708B54FF480320092009A9D
:101A90000A430092009AC261C161009AC261C269A0
:101AA0000092C269009208BD0246002013690B40F3
:101AB0000BB1012000E0002070470146086980B2A8
:101AC00070470246002053690B400BB1012000E033
:101AD000002070470146486980B270470183704713
:101AE000418370470AB1018300E04183704741613F
:101AF000704742694A4042617047F0B500230024B4
:101B00004D07ED0E02FA05F3CE1000F1200555F851
:101B100026504E07F70E0F26BE40B543CF1000F1FA
:101B2000200646F82750CE1000F1200555F8265023
:101B300045EA0304CE1000F1200545F82640F0BD2B
:101B4000000002400004024000080240000C024075
:101B5000001002400014024000180240001C024025
:101B600000200240002402400028024010B5044634
:101B7000FA48844208D10121102000F0AAFC00217B
:101B8000102000F0A6FC57E0F548844209D101215D
:101B9000480400F08DFC00214FF4003000F088FC78
:101BA0004AE0F048844209D10121880400F080FC19
:101BB00000214FF4802000F07BFC3DE0EA488442A5
:101BC00009D10121C80400F073FC00214FF400206A
:101BD00000F06EFC30E0E548844209D1012108059F
:101BE00000F066FC00214FF4801000F061FC23E05F
:101BF000DF48844208D10121202000F06AFC002146
:101C0000202000F066FC17E0DA48844209D1012167
:101C1000880700F04DFC00214FF0804000F048FCA8
:101C20000AE0D548844207D10121400500F040FC7C
:101C30000021600500F03CFC10BD2DE9FF47054682
:101C40000E460024A14600BFA046B08900B100BFE7
:101C50002C8A24F44054F08804432C82AC8941F24D
:101C60000C608443B0883189084371890843044378
:101C7000AC81AC8A24F44074B0890443AC826846D9
:101C800000F0A7FAB548854202D0B948854202D192
:101C9000DDF80C9001E0DDF80890A88900F4004020
:101CA00040B109EBC90000EB091031684900B0FBF5
:101CB000F1F707E009EBC90000EB09103168890072
:101CC000B0FBF1F76420B7FBF0F0040120096421B8
:101CD00001FB1078A88900F4004040B1322000EBED
:101CE000C800B0FBF1F000F00700044308E0322028
:101CF00000EB08106421B0FBF1F000F00F0004438A
:101D00002C81BDE8FF874FF41651016000218180CE
:101D1000C18001810C21418100218181704710B572
:101D200002460020108A20F470600B884C88234300
:101D30008C882343CC8823431843108210BD002194
:101D4000018041808180C180704721B1828942F445
:101D50000052828104E082894DF6FF731A4082812D
:101D60007047028B02F47F420283028B0A43028394
:101D7000704721B1828942F40042828103E0828966
:101D8000C2F30E028281704721B1828A42F400625E
:101D9000828204E0828A4FF2FF731A408282704787
:101DA000C1F308028280704701468888C0F30800AA
:101DB0007047028A4FF6F0731A400282028A0A4381
:101DC0000282704721B1828942F00202828104E0DE
:101DD00082894FF6FD731A408281704782894FF2E3
:101DE000FF731A40828182890A4382817047028A86
:101DF0004FF6DF731A400282028A0A43028270475A
:101E000021B1028A42F48042028204E0028A4BF647
:101E1000FF731A4002827047818941F0010181817C
:101E2000704721B1828A42F00802828204E0828AED
:101E30004FF6F7731A4082827047028BD2B2028348
:101E4000028B42EA01220283704721B1828A42F06A
:101E50002002828204E0828A4FF6DF731A40828277
:101E6000704721B1828A42F01002828204E0828AA5
:101E70004FF6EF731A4082827047828A4FF6FB73E7
:101E80001A408282828A0A438282704721B1828A02
:101E900042F00202828204E0828A4FF6FD731A4009
:101EA000828270471AB1838A0B43838202E0838A5D
:101EB0008B4383827047F0B503460024002600253B
:101EC000002040F66A17B94200D100BF1846C1F39E
:101ED000421401F01F06012707FA06F5012C01D173
:101EE0000C3004E0022C01D1103000E014301AB1A3
:101EF00007682F43076002E00768AF430760F0BD43
:101F000002460020B1F5007F00D100BF13880B40CE
:101F10000BB1012000E00020704701F40072B2F51F
:101F2000007F00D100BFCA430280704770B50246EF
:101F3000002400230025002040F66A16B14200D19B
:101F400000BFC1F3421501F01F03012606FA03F397
:101F5000012D13D19689334017E000000010014095
:101F60000044004000480040004C00400050004049
:101F70000014014000780040007C0040022D02D196
:101F8000168A334001E0968A33400C12012606FA85
:101F900004F41688344013B10CB1012000E0002095
:101FA00070BD10B50022002340F66A14A14200D192
:101FB00000BF0A1201249440A3B2DC43048010BD88
:101FC000F948006840F00100F74908600020F64930
:101FD00008310860F4480068F4490840F249086094
:101FE000F348091D0860F348EF4984310860F04860
:101FF0001038091D0860EC48006820F48020EA4988
:1020000008600020E8490C310860E7498C3108601D
:1020100070470021E44A921C117011460870704705
:1020200010B501460022002300204A11012A02D1E6
:10203000DD4C236808E0022A03D1DB4C70342368AE
:1020400002E0D94C7434236801F01F02012494404B
:102050001C400CB1012000E0002010BD38B500206C
:1020600000900024002500BF3120FFF7D9FF05466E
:102070000098401C00900098B0F5A04F01D0002DB2
:10208000F2D03120FFF7CCFF08B1012400E000249A
:10209000204638BD01460020C34A106820F0F800F1
:1020A00040EAC10010607047C349086070470021D2
:1020B000BD4A703211701170012802D004280AD173
:1020C00004E00121B84A7032117005E00521B64ADA
:1020D0007032117000E000BF00BF7047B749086060
:1020E000704770B5049C41EA82150126C6EB530681
:1020F00045EA0645054345EA0465AB4E361D3560A5
:1021000070BDAD4908667047820142EA0172A64B74
:1021100084331A607047A8498866704710B58301F8
:1021200043EA016343EA02739F4C8834236010BD85
:10213000A14908677047A049C8647047024600205B
:10214000994B0833186820F0EC6042EA0103184309
:10215000954B08331860704702460020924B0833B5
:10216000186820F0784042EA010318438E4B083388
:1021700018607047014600208B4A0832106820F032
:10218000030008431060704787480830006800F07B
:102190000C00704701460020834A0832106820F086
:1021A000F000084310607047014600207E4A083264
:1021B000106820F4E050084310607047014600208A
:1021C000794A0832106820F4604040EAC10010608B
:1021D0007047F0B5002100220024022500260223CA
:1021E000714F08373F6807F00C0121B1042905D071
:1021F000082937D105E0724F076036E0714F07605C
:1022000033E0694F3F1D3F68C7F38056664F3F1D5F
:102210003F6807F03F036EB16A4FB7FBF3F7DFF893
:1022200088C10CF1040CDCF800C0CCF3881C07FB5F
:102230000CF40CE0624FB7FBF3F7DFF86CC10CF164
:10224000040CDCF800C0CCF3881C07FB0CF4564FE0
:102250003F1D3F68C7F301477F1C7D00B4FBF5F7C6
:10226000076002E0564F076000BF00BF4E4F0837BF
:102270003F6807F0F0010909534F7A5C0768D740BF
:102280004760494F08373F6807F4E051890A4E4FCD
:102290007A5C4768D7408760434F08373F6807F448
:1022A0006041490B484F7A5C4768D740C760F0BD32
:1022B000002100F44072B2F5407F0AD13A4A083258
:1022C000116821F4F811414A02401143364A08329C
:1022D0001160354A70321268C0F30B031A43324B57
:1022E00070331A6070473549443908607047334984
:1022F0004039086070473649086070470146002041
:10230000294A8C32106820F01F004A1E1043264ACA
:102310008C321060704701460020234A8C321068CE
:1023200020F4F8504A1E40EA02201F4A8C32106006
:102330007047014600201C4A8C32106820F440107F
:1023400008431060704701460020174A8C3210681D
:1023500020F4400008431060704701460020124AF4
:102360008C32106820F440300843106070471949DF
:102370000860704739B10C4A3032126802430A4B88
:1023800030331A6006E0084A303212688243064B46
:1023900030331A607047F9B1034A3432126802438D
:1023A000014B34331A601CE000380240FFFFF6EAAC
:1023B000103000240030002000004742800E4742C9
:1023C0000024F40000127A008C000020FFFCFF0FB4
:1023D0005C014742E01147428F4A126882438E4BAC
:1023E0001A60704739B18C4A121D126802438A4B39
:1023F0001B1D1A6006E0884A121D12688243864B34
:102400001B1D1A60704739B1834A0C3212680243AF
:10241000814B0C331A6006E07F4A0C32126882430B
:102420007D4B0C331A60704739B17B4A1032126809
:102430000243794B10331A6006E0774A1032126873
:102440008243754B10331A60704739B1724A243A8F
:1024500012680243704B243B1A6006E06E4A243A2D
:10246000126882436C4B243B1A60704739B16A4A48
:10247000203A12680243684B203B1A6006E0664A25
:10248000203A12688243644B203B1A60704739B18E
:10249000614A1C3A126802435F4B1C3B1A6006E01B
:1024A0005D4A1C3A126882435B4B1C3B1A607047C2
:1024B00039B1594A143A12680243574B143B1A6017
:1024C00006E0554A143A12688243534B143B1A6093
:1024D000704739B1504A103A126802434E4B103BD4
:1024E0001A6006E04C4A103A126882434A4B103B8D
:1024F0001A60704739B1484A1C3212680243464B91
:102500001C331A6006E0444A1C3212688243424B74
:102510001C331A60704739B13F4A203212680243B7
:102520003D4B20331A6006E03B4A2032126882435A
:10253000394B20331A60704739B1374A2432126858
:102540000243354B24331A6006E0334A24321268C2
:102550008243314B24331A60704739B12E4A2C32F2
:10256000126802432C4B2C331A6006E02A4A2C32A4
:1025700012688243284B2C331A60704739B1264ABF
:10258000303212680243244B30331A6006E0224A8C
:10259000303212688243204B30331A607047012872
:1025A00008D11D493C31096841F008011A4A3C3202
:1025B000116007E018493C31096821F00801164A0A
:1025C0003C321160704739B1134A273A12780243FE
:1025D000114B273B1A7006E00F4A273A12788243C4
:1025E0000D4B273B1A7070470B484030006840F095
:1025F0008070094940310860704701460020064A52
:10260000283A12680A400AB1012000E00020704711
:10261000014926390870704734380240704700007D
:102620000FB4044910B503AA029800F067FB10BC70
:102630005DF814FB800000202DE9F04106460024DF
:1026400010687529314616A510D0AFF30080002818
:1026500002DA404213A507E031688A0701D512A5C6
:1026600002E0490704D511A5012401E0AFF3008081
:1026700000210A2206F1240709E0B0FBF2FCB0FBBE
:10268000F2F302FB1C00303078541846491C002835
:10269000F3D123462A463046BDE8F04100F0C7B8E2
:1026A000000000002D0000002B00000020000000B2
:1026B0002DE9F0474FF0000A89460446C0F820A0F3
:1026C0002046E1688847002876D0252806D0D4E93E
:1026D00001219047206A401C2062F1E7E168204612
:1026E00000268847C4F81CA005460027C4F818A097
:1026F0002A2D09D0284602F0AFFA38B304EB870838
:10270000303DC8F8185019E059F8041B204604EB76
:1027100087029161E1688847012F054618D1E06979
:10272000002820DA26F020061DE0D8F8180000EB7B
:10273000800005EB40003038C8F818002046E168FA
:102740008847054602F088FA0028EED1012F0AD00A
:102750002E2D08D12046E16888477F1C0546022FB0
:1027600046F02006C4DBA069002803DA404246F0A8
:102770000106A061F00701D026F010066C2D0AD0EA
:10278000682D08D04C2D39D06A2D35D0742D35D018
:102790007A2D33D016E0E1682F4620468847B842AC
:1027A00005460AD16C2F27D04FF48060E1680643BC
:1027B00020468847054605E027E06C2F1AD04FF4E5
:1027C000807006430DB3A5F14100192802D82035C9
:1027D00046F400664A462946204626604E46FDF7E6
:1027E0000DFD80B101280BD0F61D26F0070000F189
:1027F000080965E74020E4E78020D7E70020D5E717
:1028000006F104095CE7284661E7206ABDE8F08725
:10281000704770477047704710B500F085FA006840
:1028200010BD10B5044600F07FFA046010BD2DE91C
:10283000F0470D4699469246044600F12408016887
:10284000880604D5E06921F01001216000E0012034
:10285000A84201DD471B00E00027A1697A1902EBBD
:102860000900081AA0612078C00602D42046AFF300
:102870000080002608E0D4E901211AF806009047FC
:10288000206A401C761C20624E45F4DB2078C0068E
:102890000AD52046AFF3008006E0D4E901213020BC
:1028A0009047206A401C2062381EA7F10107F4DC23
:1028B00007E0D4E9012118F805009047206A401C80
:1028C0002062281EA5F10105F3DC2046AFF300804D
:1028D0002078000602D50220BDE8F0870120FBE742
:1028E00070472DE9FF4F0C461E464FF0FF378BB067
:1028F000D2E90001DDF860800A908A46C1F30A55EA
:1029000005B93D46002108464FF00000BAF1000F1E
:1029100000F4400005DA00EB80004FF4400101EACA
:1029200050004FEA9059B9F1010F00DDB9460A98FD
:1029300050EA4A000ED044F61050A5F2FF35454348
:102940002F14B8F1000F1ED07542291E1EDDC9F1EB
:1029500000021CE0B8F1010F4FF0000001D030215F
:1029600003E0F24305E02154401CB042FBDB30465B
:102970000022002121540B99C1F80880C1E90020F0
:102980000FB0BDE8F08FBD1B6D1CDEE74A4600DAD4
:10299000694206A800F06AFA06AB93E8070003ABA9
:1029A00083E8070050460A9900F042FB8DE80700D3
:1029B000A0F500501F3800900398002D09DD42F269
:1029C0001F014A46084403A90390684600F0A1FD90
:1029D00008E0A0F500504A461F3803A90390684656
:1029E00000F0ABFD8DE807000004000C03D04FF0B1
:1029F000FF30410800E01046B8F1000F03D000227C
:102A0000009215461EE0751E05D400F091F9303293
:102A100062556D1EF9D5B3460122084302D000224B
:102A20007F1C04E02078302801D100227F1E002A7C
:102A3000099786D01DE0112D07DA00F079F93032C0
:102A400062556D1C50EA0102F5D1084302D000988E
:102A5000C8B10EE00021681E05E0235C625C63548F
:102A60002254401E491C8142F7DBAB46A81B401E86
:102A70000990002004F80B000B98099AC0F8088010
:102A8000C0E9002B7CE711264FF0000859E72DE93B
:102A9000F04F88460446D21D22F0070191B0D1E9DB
:102AA0000001CDE90A0100F07EFE02460B98C00F3E
:102AB00001D02D2007E02068810701D52B2002E0FE
:102AC000202101EAC000032A099001D0072A05DB72
:102AD00003464146204600F089F90BE12078800644
:102AE00001D5E06900E00620B8F1650F814606D007
:102AF000B8F1660F18D0B8F1670F70D131E000203F
:102B0000B9F1110F009001DB112301E009F101037C
:102B10000AAA01A90CA8FFF7E4FEDDE90C70002663
:102B200009F10105834647E001204B4600904FF034
:102B300000470AAA01A90CA8FFF7D3FEDDE90DB0F2
:102B40000C995D46002610B909F101000D18B9EB8A
:102B5000050003D4C0F1FF3609F10105A5EB09001A
:102B60002BE0B9F1010F01DA4FF001090020B9F1B2
:102B7000110F0090484601DD112300E003460AAA28
:102B800001A90CA8FFF7ADFEDDE90C704D4600264B
:102B90008346207800070AD4AB4500DA5D4601A8D9
:102BA000012D04DD411911F8011C302907D04F45D2
:102BB00002DA17F1040F04DA012082460FE06D1EDD
:102BC000EEE7002F02DCED1B3E4403E0781CA84238
:102BD00000DD7D1CB81B00F1010A4FF00047207892
:102BE000000703D4AA4501DB4FF0FF3A0021B7F1FB
:102BF000004F0DF143088DF8431024D002202B2301
:102C0000002F01DA7F422D230A21021EA0F10100CC
:102C100000DC5FB197FBF1FC97FBF1F201FB1C7C40
:102C200017460CF1300C08F801CDEEE7A8F10100D1
:102C300003702188090501D5452100E06521A0F137
:102C4000010800F8011C09980FA9A1EB0807FF1D56
:102C500000B10120411901EBEA70A1693844081A5A
:102C6000401EA0612078C00602D42046AFF3008049
:102C7000099828B1D4E901219047206A401C2062BC
:102C80002078C00622D52046AFF300801EE0002E3B
:102C900004DBB34502DD01A8805D00E03020D4E90B
:102CA00001219047206A401C2062761CAAF1010095
:102CB0005FEA000A0AD100F033F8C0680168405C9E
:102CC000D4E901219047206A401C2062281EA5F10A
:102CD0000105DCDC07E0D4E9012118F8010B90477D
:102CE000206A401C2062381EA7F10107F3DC204651
:102CF000AFF30080032011B043E60000074B70B52E
:102D00000D467B4400F05FF80446284600F01CF9AD
:102D100010B14FF0FF3070BD204670BD63E3FFFF80
:102D200000487047B81D002000487047981D0020DB
:102D300030B5B0F10A024FEA900E71F100034EEA8D
:102D4000817EB0EB0E0061EB91014FEA101E4EEA5E
:102D5000017E10EB0E0041EB11114FEA102E4EEAEE
:102D6000016E10EB0E0041EB11214FEA104E4EEABE
:102D7000014E10EB0E0041EB1141401841F10001F2
:102D80004FEAD00040EA41704FEAD10110EB8005D4
:102D90004FEA810444EA907444EB01046D1944EB5A
:102DA0000404521BA3414FF0000348BF0A3200D570
:102DB00030BD401C41F1000130BD000001694A1CDA
:102DC00002610878704700B58FB0CDE9013100216C
:102DD000059105497944CDE9031011466846FFF78E
:102DE00067FC0FB000BD0000E5FFFFFF2DE9F041DB
:102DF0001F46044603260168072A01F4006004DB2D
:102E000008B116A505E016A503E008B115A500E078
:102E100015A521F010002060A069C01EA0610FB1AF
:102E2000401EA0612046AFF300804FB1D4E90121DC
:102E300038469047206A401C2062C01C206206E091
:102E4000206AFAE7D4E9012115F8010B9047761EB4
:102E5000F8D22046AFF30080BDE8F0814E414E002D
:102E60006E616E00494E4600696E66002DE9F047BE
:102E7000814616468AB0334878440DC88DE80D0067
:102E800030487844801C03AC0DC884E80D0041F63E
:102E90009B300844372190FBF1F290FBF1F5A5F14E
:102EA000800501FB12041B3C02D56442012000E0B6
:102EB0000020DFF890A080460027FA44AAF1BE0A5D
:102EC0000DE0E00709D03246684607EB47010AEB00
:102ED000810100F032FB8DE8070064107F1C002C9C
:102EE000EFD1184F7F44AC3F18E0E80714D007EB50
:102EF00004100DF1180A90E80E008AE80E00C06870
:102F0000F04201D198190890324606A903A800F0B2
:102F100014FB03AB83E807006D10641C002DE4D1A3
:102F200032466946B8F1000F03A802D000F0F1FA6A
:102F300001E000F002FBC9E90001C9F808200AB06D
:102F4000BDE8F087F02C0000007B00F080007047A7
:102F500000487047981D00207546FFF7F9FFAE4600
:102F600005006946534620F00700854618B020B595
:102F7000FEF730FCBDE820404FF000064FF00007A0
:102F80004FF000084FF0000B21F00701AC46ACE811
:102F9000C009ACE8C009ACE8C009ACE8C0098D467E
:102FA00070470446AFF300802046FDF746F9000065
:102FB0004FF0013C50F8042B51F8043B9A4221D1C8
:102FC000A2EB0C03934313EACC1317D150F8042B54
:102FD00051F8043B9A4215D1A2EB0C03934313EA38
:102FE000CC130BD150F8042B51F8043B9A4209D171
:102FF000A2EB0C03934313EACC13DBD04FF0000099
:10300000704700BFD01A01BAB1FA81F101F018017E
:1030100022FA01F0CB40C1F12001DBB2C0B2C01AEC
:103020002CFA01F3D11A914311EAC311E6D170478A
:103030005FEA400C08BF91F0000F4FEA8C234FEA83
:10304000C12243EA51514FEA1C5018BF00F5F0402D
:103050004FEA300018BF41F000415FEA6C5C00F0BD
:103060002980BCF1FF3F08BF40F080407047130C3F
:1030700006BF12044FF0100C4FF0000C130E04BFEB
:1030800012020CF1080C130F04BF12010CF1040C16
:10309000930F04BF92000CF1020CD30F04BF520037
:1030A0000CF1010C11464FF00002A0F11F00A0EB43
:1030B0000C00704711F0004F08BF704731F000411D
:1030C0003FF4D5AF0B0C06BF09044FF0100C4FF0C6
:1030D000000C0B0E04BF09020CF1080C0B0F04BF0F
:1030E00009010CF1040C8B0F04BF89000CF1020CD8
:1030F000CB0F04BF49000CF1010CCCF12003A0EB75
:103100000C0022FA03F302FA0CF241EA030100F187
:103110000100704720F07F4C80EA030023F07F47D6
:10312000ACEB070303F57C5300F0004003F1FF0311
:103130002DE980494FEA154B09B44FEA144325EABB
:103140000B4E24EA03480FF2042606EB1327490826
:103150003E785FEA320203FB0667C7F5000707FB0C
:1031600006F64FEA54374FEAD64606F1020607FB49
:10317000066CCCF1005C4FEA1C472CEA074C07FBBD
:1031800006F40CFB06F504EB15464FEA961634BF21
:1031900000204FF000404FEAD13706FB07FC4FEA12
:1031A0001C4C0CFB0BF7D21B03FB0CF761EB07016C
:1031B0000CFB0EF7B0EB074072EB17420CFB08F765
:1031C00034BFA2EB0742B2EB074261EB17414FEA73
:1031D0000C444FEA910706FB07FC4FEA1C4C0CFB22
:1031E0000BF7B0EBC74072EB573203FB0CF734BF61
:1031F000A2EBC742B2EBC74261EB57310CFB0EF7B3
:10320000B0EBC70072EB57720CFB08F734BFA2EBB0
:10321000C702B2EBC70261EB5771039F4FEA8161AE
:1032200041EA921104EBCC044FEAD1374FEA8262B3
:1032300006FB07FC42EA90124FEA80604FEA1C4C02
:103240000CFB0BF7D21B03FB0CF761EB07010CFB2C
:103250000EF7B0EB074072EB17420CFB08F734BFD8
:10326000A2EB0742B2EB074261EB17414FEA8C55E4
:103270004FEA910704EB9C2406FB07FC4FEA1C4C29
:103280000CFB0BF7B0EBC74072EB573203FB0CF7AC
:1032900034BFA2EBC742B2EBC74261EB57310CFB24
:1032A0000EF7B0EBC70072EB57720CFB08F734BF98
:1032B000A2EBC702B2EBC70261EB577115EB4C25CD
:1032C0004FEA816141EA92114FEA82624FEAD137B7
:1032D00042EA901206FB07FC44F100044FEA8060CA
:1032E0004FEA1C4C0CFB0BF7D21B03FB0CF761EBFA
:1032F00007010CFB0EF7B0EB074072EB17420CFB1B
:1033000008F734BFA2EB0742B2EB074261EB17416B
:1033100015EB1C154FEA813141EA92414FEA8232A6
:1033200042EA90424FEA80304FEA0C7644F10004C2
:1033300048EA03434EEA0B484FF0000EB2EB080C8C
:1033400071EB030724BF624639464EEB0E0E4FF079
:10335000000B0018524149414BEB0B0BB2EB080C30
:1033600071EB03077BF1000B24BF624639464EEB3D
:103370000E0E4FF0000B0018524149414BEB0B0B66
:10338000B2EB080C71EB03077BF1000B24BF624624
:1033900039464EEB0E0E51EA020718BF46F0010601
:1033A00016EB0E7655F1000254F1000103D5BDE88D
:1033B0008901BDE80088BDE88901BDE80048B6196B
:1033C000524141EB0101A3F10103704780807F7EF0
:1033D0007D7C7B7A7978777676757473727171708B
:1033E0006F6E6E6D6C6C6B6A6A696868676666653D
:1033F0006464636362616160605F5F5E5E5D5D5CCB
:103400005C5B5B5A5A59595858575756565555553B
:103410005454535352525251515050504F4F4F4E9B
:103420004E4D4D4D4C4C4C4B4B4B4A4A4A494949E9
:10343000484848474747474646464545454444442B
:10344000444343434342424242414141002B26D43C
:10345000770021D01CB54FEA370703B44FF01000B6
:103460004FF010014FF000000FBCBDE810400BF111
:10347000010BBBF1010F08BF5FEA170722BF12F172
:10348000010211F101014FF0004143F1000300F08E
:10349000004043EA00007047F9D35708DAE746EAEC
:1034A000064613F1400F4FEA16461FDD13F1200FB9
:1034B000DFBF16430A46002120335B42C8D0C3F168
:1034C000200746EA064602FA07F74FEA164646EA9A
:1034D0000706C3F1200722FA03F201FA07F721FADF
:1034E00003F14FF0000342EA0702B1E746EA0206A1
:1034F00046EA06464FEA164646EA0106BCBF46EAD9
:103500000646360C4FF000034FF000024FF000016A
:103510009EE72DE9C048934630B491E8380007C8CB
:1035200031EA400C48BF34EA430C03D5FFF7F2FD03
:10353000FFF78CFFF0BCBDE800882DE9C04893463A
:1035400030B491E8380007C810F0804F08BF13F07E
:10355000804F03D100F005F8FFF778FFF0BCBDE81D
:10356000008820F07F4780EA030023F07F4C07EBC0
:103570000C03A3F57C5300F00040A3F1FE0392F08E
:10358000000F00F0B38095F0000F00F077802DE978
:1035900001494FEA11404FEA144621EA004800FB76
:1035A00006FC24EA064708FB06F607FB08F800FBC2
:1035B00007F718EB06484CEB164C4FEA124B18EB8A
:1035C00007484FEA15464CEB174022EA0B4E0BFB1F
:1035D00006FC25EA06470EFB06F607FB0EFE0BFB74
:1035E00007F71EEB064E4CEB164C4FF000061EEB99
:1035F000074E4CEB174B18EB0B0840F1000018EB93
:103600000E0B58EB000840F100008F1A4FF000013C
:103610003CBFC943661B14BFB5EB040C00213CBF83
:10362000C943F61B4FEA17444EEA8E0E27EA0445BB
:103630004FEA1C4704FB07622CEA074C05FB07F71F
:103640000CFB05F604FB0CFC16EB074642EB17429D
:1036500016EB0C4642EB1C421BEB060658EB020233
:10366000414146EA9E0601D5BDE80189B61952419D
:1036700041EB0101A3F10103BDE801894FEA1445C3
:103680004FEA114724EA054621EA074C05FB07F4F7
:1036900006FB07F70CFB06F105FB0CFC11EB0741E1
:1036A00044EB17444FEA124711EB0C4144EB1C4426
:1036B00022EA074C05FB07F206FB07F70CFB06F6B0
:1036C00005FB0CFC16EB074642EB174216EB0C46CB
:1036D00042EB1C456A1854F1000148BF7047B61907
:1036E000524141EB0101A3F10103704795F0000F36
:1036F00037D04FEA11424FEA144721EA024624EA42
:10370000074C02FB07F106FB07F70CFB06F402FB74
:103710000CFC14EB074441EB17414FEA154714EB3F
:103720000C4441EB1C4125EA074C02FB07F506FB64
:1037300007F70CFB06F602FB0CFC16EB074645EB05
:10374000174516EB0C4645EB1C42121951F10001CE
:1037500048BF7047B619524141EB0101A3F1010383
:1037600070474FEA14454FEA114724EA054621EA1B
:10377000074C05FB07F106FB07F70CFB06F24FF0C1
:10378000000605FB0CFC12EB074241EB174112EB64
:103790000C4251EB1C4148BF7047921841EB0101AC
:1037A000A3F10103704703B401984100009850EA67
:1037B000C12018BF04204A0D18BF40F0010040F29C
:1037C000FF72B2EB515F08BF40F00200012808BF52
:1037D000052002B07047000070B59B482DED020B2C
:1037E0002DED068B079D25F00044A04218DC97487C
:1037F000844202DC0AD1069840B19DED060BBDEC77
:10380000068B02B0BDE8704001F0EAB9002DCCBFD4
:103810009FED8F0B9FED900BBDEC068B02B070BD42
:103820008F48A04215DD8F48A042D8BF4FF0FF342B
:1038300058DD9DED060B51EC100BFFF7B4FF04288B
:1038400008BF01F0F9F99DED060BBDEC068B02B047
:1038500070BD9DED060B51EC100B01F004FACDE9A3
:10386000060181489FED828BA0423CDD8248A04248
:103870001FDD00249FED82AB9DED060B53EC1A2B50
:1038800051EC100B01F058FA9DED060B41EC190BB1
:1038900053EC1A2B51EC100B01F05AFD53EC182B82
:1038A00001F096FE53EC192B01F0FAFACDE906016E
:1038B00049E09DED060B012453EC182B51EC100B45
:1038C00001F03AFA9DED060B41EC190B53EC182B65
:1038D00051EC100B01F07CFE53EC192B01F0E0FAD7
:1038E000CDE906012FE06848A0421FDD02249FEDCC
:1038F000689B9DED060B53EC192B51EC100B01F05E
:1039000027FD53EC182B01F017FA9DED060B41EC47
:10391000180B53EC192B51EC100B01F059FE53EC22
:10392000182B01F0BDFACDE906010CE09DED060B68
:10393000032453EC102B9FED580B51EC100B01F0AE
:10394000AFFACDE906019DED060B53EC102B51ECBF
:10395000100B01F0FDFC41EC180B53EC182B01F09F
:10396000F7FC41EC190B4E480621B0EE490AF0EE87
:10397000690A784401F008F853EC182B51EC100B4D
:1039800001F0E6FC41EC180B4648B0EE490AF0EEB7
:10399000690A0521784400F0F7FF53EC192B51EC2C
:1039A000100B01F0D5FC41EC100B51EC180B53EC53
:1039B000102B002C0EDA01F0BFF99DED061B53EC25
:1039C000112B01F0C5FC9DED061B53EC112B01F0F2
:1039D000F3FD35E001F0B0F99DED061B53EC112B22
:1039E00001F0B6FC41EC100B2F48784400EBC4000A
:1039F00090ED001B51EC100B53EC112B01F0E8FD86
:103A00009DED061B53EC112B01F0E2FD41EC100B78
:103A10002648784400EBC40090ED001B51EC100BDD
:103A200053EC112B01F0C8FD41EC100B002DA2BF8F
:103A3000BDEC068B02B070BD51EC100B01F03EF9ED
:103A400041EC100B01E70000000010440000F07F83
:103A5000182D4454FB21F93F182D4454FB21F9BF84
:103A60000000DC3F0000203E0000F33F00000000AB
:103A7000000000000000F03F0000E63F00000000F2
:103A80000000000000000040008003400000000033
:103A9000000000000000F83F000000000000F0BF40
:103AA000921F0000481F0000D21E00008A1E000066
:103AB00070B52DED020B2DED0A8B82B00D98C40F61
:103AC00020F00045AE48854248D3AE48854219D320
:103AD0000C99C5F31300084309D09DED0C0B02B0FF
:103AE000BDEC0A8B02B0BDE8704001F079B8002C43
:103AF00014BF9FEDA50B9DED0C0B02B0BDEC0A8B26
:103B000002B070BD9FEDA20B53EC102B9DED0C0B82
:103B100051EC100B01F01AFD0AD20220FEF781FED3
:103B200002B0BDEC0A8B02B0BDE8704001F074B881
:103B30009FED990B53EC102B9DED0C0B51EC100BE2
:103B400001F0CAFB0AD20220FEF76BFE02B0BDEC08
:103B50000A8B02B0BDE8704001F06EB890489FED4E
:103B600092BBA8425CD29248854219D291487844CF
:103B700000EBC40090ED000B53EC102B9DED0C0BF3
:103B800051EC100B01F024FD41EC1A0B8A487844EB
:103B900000EBC40090ED009BC4F10100041B36E073
:103BA0009FED870B53EC102B9DED0C0B51EC100B84
:103BB00001F0CEFB41EC100B8348784400EBC400CD
:103BC00090ED001B51EC100B53EC112B01F0B4F8ED
:103BD00001F0FAFA044601F054FB41EC180B9FED9A
:103BE0007C0B53EC102B01F0B3FB9DED0C1B53EC45
:103BF000112B01F0E1FC41EC1A0B9FED770B51EC1E
:103C0000180B53EC102B01F0A3FB41EC190B51ECFA
:103C10001A0B53EC192B01F0DBFCCDE90C011BE076
:103C20006F48854217D29FED700B53EC102B9DED22
:103C30000C0B51EC100B01F07FF853EC1B2B01F037
:103C400085FC08D29DED0C0B53EC1B2B51EC100B9B
:103C500001F072F86EE000249DED0C0B53EC102B7C
:103C600051EC100B01F074FB41EC180B604805217E
:103C7000B0EE480AF0EE680A784400F085FE53EC96
:103C8000182B51EC100B01F063FB9DED0C1B53EC5A
:103C9000112B01F091FC41EC180B9FED570B5CB31D
:103CA00053EC182B51EC100B01F092FC9DED0C0B1A
:103CB00041EC1C0B53EC182B51EC100B01F048FBA2
:103CC00053EC1C2B01F0ECF853EC192B01F074FCB5
:103CD00053EC1A2B01F07CFC53EC1B2B01F06CFC19
:103CE000CDE900016FF47F70844226DB01EB0450C4
:103CF00001909DED000B00E753EC102B51EC180BDD
:103D000001F066FC9DED0C0B41EC190B53EC182BEC
:103D100051EC100B01F01CFB53EC192B01F0C0F817
:103D20009DED0C1B53EC112B01F052FC53EC1B2BA3
:103D300001F042FC41EC100BDFE608464FF07A51EF
:103D400001EB04519FED2E0B084453EC102B019016
:103D50009DED000B51EC100B01F0FAFA0D4645EC0D
:103D6000100B044651EC100BFFF71DFD042808BF93
:103D700000F062FF45EC104BBFE6000000000000C1
:103D8000422E86400000F07F00000000000000008E
:103D9000EF39FAFE422E864051302DD5104987C0AA
:103DA000422ED63F00000000000000000000F03F5F
:103DB000B2A2F03FD61D0000C61D000000000000AA
:103DC000FE822B654715F73F7A1D000000000000BA
:103DD0000000E0FE422EE63F763C7935EF39EA3DC1
:103DE0000000303E000000009C7500883CE4377EF7
:103DF000EC1C00000000000000000000000000407B
:103E000000000000000070012DED020B019820F071
:103E1000004001909DED000B02B0704700000000D3
:103E200070B5D94B00242DED020B2DED108BDDE983
:103E30001010984205DA20F000429A4201D809D1C8
:103E400041B19DED100BBDEC108B02B0BDE8704090
:103E500000F0C6BEB0F5801F26DA11430BD0002853
:103E600013DA0120FEF7DDFCBDEC108B02B0BDE8DB
:103E7000704000F0C1BE0220FEF7D3FC00F098FEB7
:103E800051EC100B00F01AFF9EE06FF035049FED2F
:103E9000C00B53EC102B9DED100B51EC100B01F0EF
:103EA00057FACDE91001084604EB2051C0F3130482
:103EB000B948A1F2FF31204400F4801080F07F6205
:103EC00082F04052224301EB20559FEDB50B119239
:103ED00053EC102B9DED100B51EC100B01F078FB07
:103EE00041EC180BA01CC0F313009FEDAFDB9FED5E
:103EF000B0EBB14E7E4403286CD296ED000B51EC32
:103F0000180B53EC102B01F023F91DD1002D01BF2C
:103F100096ED000BBDEC108B02B070BD284601F091
:103F2000B0F941EC180B53EC1D2B01F011FA41ECE8
:103F3000190B53EC1E2B51EC180B01F009FA53EC42
:103F4000192B00F0F9FE3FE09FED9D0B51EC180B93
:103F500053EC102B01F0FCF99FED9B1B53EC112B44
:103F600001F02AFB41EC190B53EC182B51EC180B08
:103F700001F0EEF953EC192B01F0EAF941EC190BC1
:103F8000002D04BF53EC192B51EC180B1AD0284606
:103F900001F077F941EC1A0B53EC1D2B01F0D8F925
:103FA00053EC192B01F008FB53EC182B01F010FB1C
:103FB00041EC180B53EC1E2B51EC1A0B01F0C8F915
:103FC00053EC182B01F004FBBDEC108B02B041EC5C
:103FD000100B70BD9FED7E0B51EC180B53EC102BAA
:103FE00000F0AAFE41EC100B51EC180B53EC102B17
:103FF00000F056FF41EC190B284601F042F941EC64
:104000001B0B53EC192B51EC190B01F0A1F941ECEE
:104010001A0B714853EC1A2B261851EC1A0B01F0AD
:1040200097F941EC1F0B6D48C4F1510404F5D724F6
:10403000B0EE4F0AF0EE6F0A0321784400F0A4FCC2
:1040400053EC1F2B51EC100B01F082F941EC1C0BCF
:104050006348B0EE4F0AF0EE6F0A0421784400F096
:1040600093FC53EC1A2B51EC100B01F071F9344313
:1040700053EC1C2B00F060FE41EC1C0B002C4CDDC3
:104080009FED510B51EC180B53EC102B01F060F924
:1040900053EC182B01F05CF941EC1A0B55B353ECBF
:1040A0001D2B51EC1B0B01F053F941EC1D0B53EC94
:1040B0001C2B51EC1A0B00F03FFE53EC192B01F0B6
:1040C00047F953EC1D2B00F037FE53EC1A2B01F08F
:1040D00073FA53EC182B01F07BFA41EC180B53ECFC
:1040E0001E2B51EC1B0B01F033F953EC182B01F094
:1040F0006FFA69E753EC1C2B51EC1A0B00F01CFE15
:1041000053EC192B01F024F953EC1A2B01F054FA5B
:1041100053EC182B01F050FA56E735B353EC1D2B36
:1041200051EC1B0B01F014F941EC1A0B53EC1C2B56
:1041300051EC180B01F04CFA53EC192B01F008F973
:1041400053EC1A2B01F044FA53EC182B01F040FA0F
:1041500041EC180B53EC1E2B51EC1B0B01F0F8F843
:1041600053EC182B01F034FA2EE753EC1C2B51ECD6
:10417000180B01F02DFA53EC192B01F0E9F853EC70
:10418000182B01F019FA1FE70000F07F0000000073
:104190000000000000005043645F090000000000C0
:1041A000000000000000F03F763C7935EF39EA3D31
:1041B0000000E0FE422EE63F001B00000000000071
:1041C000555555555555D53F000000000000E03FBE
:1041D000000000000000004086EBF9FF821900009B
:1041E000781900000000000070B5414A00252DED4F
:1041F000020B2DED048BDDE90404944205DA24F072
:104200000041914201D809D140B19DED040BBDECB4
:10421000048B02B0BDE8704000F0E2BCB4F5801F32
:1042200026DA08430BD0002C13DA0120FEF7F9FA46
:10423000BDEC048B02B0BDE8704000F0DDBC022094
:10424000FEF7EFFA00F0B4FC51EC100B00F036FD75
:1042500046E09FED290B6FF0350553EC102B9DEDDB
:10426000040B51EC100B01F073F8CDE904010C467E
:1042700005EB2450A0F2FF30C10F40F2FF32521A7A
:1042800062F31F54084400F0FCFF05949DED040BFD
:1042900041EC180B51EC100B00F0F1FC9FED181BDA
:1042A00053EC112B01F054F89FED170B41EC190B57
:1042B00053EC102B51EC180B01F04AF853EC192B6E
:1042C00000F03AFD9FED120B41EC190B53EC102B53
:1042D00051EC180B01F03CF853EC192B00F02CFDBD
:1042E000BDEC048B02B041EC100B70BD000000006F
:1042F0000000F07F000000000000000000005043BC
:104300000EE526157BCBDB3F362BF111F3FE593D35
:1043100000609F501344D33F10B52F499FED2C1BD5
:104320002DED020B84B0059820F000408842DCBFE0
:1043300000209DED040B32DD2849884209D1049804
:1043400040B94FF00100FEF76CFA00F055FC06B0E2
:1043500010BD05DB9DED040B00F042FC06B010BD66
:1043600068469DED040B00F03BF810F0030011D0FF
:10437000012818D09DED021B9DED000B02281AD0DC
:1043800000F04AFA51EC100B00F098FC06B041EC3A
:10439000100B10BD9DED021B9DED000B012000F0E8
:1043A0006FFB06B010BD9DED021B9DED000B00F0F4
:1043B00033FA06B010BD012000F062FB51EC100B87
:1043C00000F07CFC06B041EC100B10BD00000000BA
:1043D0000000000000000000FB21E93F0000F07F2A
:1043E0002DE9F14F04462DED020B2DED088B8AB01F
:1043F0009FEDE70B80ED020B139EE74826F000458A
:1044000085420ADC9DED120B002084ED000B0AB002
:10441000BDEC088B03B0BDE8F08FE0489FEDE0AB4A
:104420009FEDE1BBA84247DDE14F9FEDE39B9FED90
:10443000E48B9DED120B53EC1A2B51EC100B002E5C
:104440001CDD01F0C5F841EC100BBD4208D053EC67
:104450001B2B51EC100B01F0BBF8C4E900010BE081
:1044600053EC192B51EC100B01F0B2F853EC182B54
:1044700001F0AEF8C4E900010120C8E700F05CFCDF
:1044800041EC100BBD4208D053EC1B2B51EC100B30
:1044900000F052FCC4E900010BE053EC192B51EC85
:1044A000100B00F049FC53EC182B00F045FCC4E95C
:1044B00000014FF0FF30AAE7C348A84279DB9DED29
:1044C000120B51EC100B00F0CEFB41EC180B9FEDE2
:1044D000C00B53EC102B00F03BFF9FEDBF1B53ECC8
:1044E000112B00F029FC00F06FFE074600F0C9FE1A
:1044F00041EC190B53EC1A2B00F02AFF53EC182B4C
:1045000001F05AF841EC180B53EC1B2B51EC190B32
:1045100000F01EFFDFF8C8A241EC100B4FEA15585F
:104520000125FA4453EC102B51EC180B01F050F814
:10453000032DC4E900013DD0C1F30A5005EB45113C
:10454000A8EB00001139814234DA0AEB051BB0EE0A
:1045500048AA9BED000BF0EE68AA53EC102B51EC2F
:10456000190B00F0F5FE41EC1B0B51EC1A0B53EC50
:104570001B2B01F02DF841EC180B51EC1A0B53ECEE
:10458000182B01F025F853EC1B2B01F021F89BEDC3
:10459000020B41EC1A0B53EC102B51EC190B00F0F1
:1045A000D7FE53EC1A2B01F013F841EC100B6D1CE5
:1045B000B8E70EE0002EA8BF3846BFF628AF94ED4E
:1045C000000B51EC100B00F079FBC4E900017842BC
:1045D0001DE7C6F3130040F4801EC6F30A50A0F294
:1045E000F530471100F01F05C5F12000DDF848B097
:1045F00008900020069007900520EC467949002D90
:1046000007EB0002794408BF51F8221009D051F895
:10461000223001EB8201AB404A68089922FA01F18D
:104620001943A1FB0E26A1FB0B131A449A4234BF77
:104630000123002303EB06080CEB8003D3E901A65A
:104640000E448E4234BF0121002192448A4411B1AC
:10465000924502D903E0924501D2012100E00021F8
:10466000C3E901A641444CF82010011EA0F101004D
:10467000C4DC029800F10050850F0298DDE9036761
:104680008000DDF8148000F0FCFD41EC1A0B304690
:1046900000F00EFE9FED541B53EC112B00F058FE62
:1046A00041EC1B0B384600F003FE9FED511B53EC11
:1046B000112B00F04DFE41EC180B404600F0F8FDC8
:1046C0009FED4D1B53EC112B00F042FE41EC190BFA
:1046D00051EC180B53EC192B00F02EFB53EC1B2B59
:1046E00000F02AFB53EC1A2B00F026FBCDE9080161
:1046F000002008909DED080B53EC1A2B51EC100B89
:1047000000F066FF53EC1B2B00F062FF53EC182BFC
:1047100000F05EFF53EC192B00F04EFF9FED381BAD
:1047200053EC112B00F014FE9FED370B41EC180BEE
:1047300053EC102B9DED080B51EC100B00F008FE14
:1047400053EC182B00F0F8FA9FED310B41EC180BED
:1047500053EC102B9DED080B51EC100B00F0F8FD05
:1047600053EC182B00F0E8FA41EC100B139810F002
:10477000004F06D06D4251EC100B00F09FFA41EC57
:10478000100B284684ED000B41E6000000000000FD
:104790000000000000000000FB21E93F7CD902403E
:1047A00000004054FB21F93F3163621A61B4D03DEF
:1047B000FB21F93F000000000000601A61B4D03D09
:1047C0007370032E8A19A33BFB21394100000000BE
:1047D00083C8C96D305FE43F000000000000E03F87
:1047E000DA14000028140000000000000000103E51
:1047F000000000000000103C000000000000103A23
:10480000182D4454FB21F93D3326A611460B113CCB
:1048100000000054FB21F93D10B52DED040B2DEDEA
:10482000088B82B0B0EE419AF0EE619A0B9820F0BE
:1048300000449FED4BABB4F1795F11DA9DED0A0BAB
:1048400051EC100B00F0C0FC002801BFB0EE4A0A8A
:10485000F0EE6A0A02B0BDEC088B04BF04B010BDD4
:104860009DED0A0B53EC102B51EC100B00F070FD7A
:1048700041EC180B3C480621B0EE480AF0EE680AFD
:10488000784400F081F853EC182B51EC100B00F039
:104890005FFD9DED0A0B41EC1B0B53EC192B51EC0A
:1048A000100B00F055FD41EC190B53EC1B2B51EC98
:1048B000180B00F04DFD53EC192B00F089FE9FED15
:1048C0002C0B41EC190B53EC102B51EC180B00F096
:1048D0003FFD41EC100B2848844210DA53EC192BB1
:1048E00051EC100B00F074FE53EC1A2B00F064FE38
:1048F00041EC100B02B0BDEC088B04B010BD1F489A
:10490000A042BCBF9FED1E1B8DED001B06DBA4F576
:1049100000100190002000909DED001B51EC100B49
:1049200053EC112B00F054FE9DED000B41EC180BE5
:1049300053EC102B51EC1A0B00F04AFE41EC1A0B11
:1049400053EC192B51EC180B00F042FE53EC1A2BD0
:1049500000F032FE41EC100BCCE70000000000003C
:10496000000000000000F03F0C11000000000000FB
:10497000000000000000E03F3333D33F0000E93F78
:10498000000000000000D23F70B504462DED028B00
:104990004D1E00EBC500B0EE408AF0EE608A90ED4F
:1049A000000B35F0060017D053EC182B51EC100B10
:1049B00000F0CEFC41EC100B6D1E04EBC50090ED39
:1049C000001B51EC100B53EC112B00F0B5F941EC2E
:1049D000100B35F00600E7D1022D36D0042D1CD087
:1049E000062D1CBFBDEC028B70BD53EC182B51EC97
:1049F000100B00F0ADFC94ED0A1B53EC112B00F0F2
:104A00009BF953EC182B00F0A3FC94ED081B53EC1E
:104A1000112B00F091F941EC100B53EC182B51ECD9
:104A2000100B00F095FC94ED061B53EC112B00F0DD
:104A300083F953EC182B00F08BFC94ED040B53EC32
:104A4000102B00F079F941EC100B53EC182B51ECC2
:104A5000100B00F07DFC94ED021B53EC112B00F0C9
:104A60006BF953EC182B00F073FC94ED001B53EC26
:104A7000112B00F061F9BDEC028B41EC100B70BD05
:104A800031B504462DED040B2DED0A8BB0EE41BA85
:104A9000F0EE61BA0B989DED0A0B20F00040B0F1EA
:104AA000795F0DDA51EC100BFEF77DFE042808BF8C
:104AB00000F0C2F89DED0A0BBDEC0A8B05B030BDCD
:104AC00053EC102B51EC100B00F042FC41EC180B96
:104AD0009DED0A0B53EC182B51EC100B00F038FC39
:104AE00041EC190B2C48B0EE480AF0EE680A05219B
:104AF0007844FFF749FF9FED2ACBB0EE40AAF0EED5
:104B000060AA9CB353EC1C2B51EC190B00F020FC59
:104B100041EC1C0B53EC1A2B51EC190B00F018FC58
:104B20009FED210B41EC190B53EC102B51EC1B0B9F
:104B300000F00EFC53EC192B00F04AFD53EC182B3F
:104B400000F006FC53EC1B2B00F042FD53EC1C2B39
:104B500000F03EFD9DED0A1B53EC112B00F02CFDE7
:104B6000BDEC0A8B05B041EC100B30BDFFE753ECF8
:104B70001A2B51EC180B00F0EBFB53EC1C2B00F044
:104B8000DBF853EC192B00F0E3FB9DED0A1B53EC13
:104B9000112B00F0D1F8E3E7D40F00000000000073
:104BA000495555555555C5BF000000000000E03F70
:104BB0009FED070B10B553EC102B9FED070B51EC3D
:104BC000100B00F06DF941EC100B10BD000000005F
:104BD0000000000000000000000000000000F03FA6
:104BE00010B553EC102B51EC100B00F0A5F841EC74
:104BF000100B10BD000000009FED050B10B553EC2D
:104C0000102B51EC100B00F04BF941EC100B10BDC8
:104C100000000000000000009FED050B10B553ECF4
:104C2000102B51EC100B00F093FB41EC100B10BD5E
:104C300000000000000000709FED050B10B553EC64
:104C4000102B51EC100B00F083FB41EC100B10BD4E
:104C5000000000000000001030380A2801D20120B6
:104C600070470020704782B0CDE9000121F000407C
:104C700001909DED000B02B051EC100B704710B588
:104C800041EC100BFFF7CCF851EC100B10BD0000FD
:104C900010B500290AD00878002807D005487844C4
:104CA000FEF786F9002801D0002010BD02487844A4
:104CB00010BD0000060F0000FE0E000081F0004154
:104CC000704780F00040704721F00041704720F0AD
:104CD0000040704721F00042A2F16052B2F5801FFF
:104CE00001F0004328BFD2F17F6C0BD95FEA001CB2
:104CF00043EAC20242EB507018BF704728BF20F051
:104D000001007047B2F5801FBCBF184670474FEADC
:104D1000410C1CF5001F02D2084600F0B9BD70B569
:104D200000F0C0FB00000089FFF7F6BF4FF0004025
:104D3000A0F580007047000010B591EA030F48BF4E
:104D400083F0004300F14C84841A71EB030C05D20C
:104D5000121943EB0C03001B61EB0C01DFF824E19B
:104D60004FEA1154A4EB135C1EEA430F18BF9EEAEE
:104D7000445F73D023EA0E03DCF1200E21EA0451D4
:104D800043F4801332D322FA0CFE10EB0E0023FA08
:104D90000CFE41EB0E01CCF1200E03FA0EFE10EBDF
:104DA0000E0051F10001B1F5801FCCF1200E32D27E
:104DB00001EB045112FA0EF2BDE8104058BF7047E3
:104DC000401C38BF5FEA420218BF7047002814BF7A
:104DD00020F0010041F100014FEA410313F5001FEB
:104DE00038BF7047A1F1C04100F0AABB012A43EBD4
:104DF0000302ACF1200CDCF11F0E32BF4FF0000EAD
:104E000023FA0CF310EB030041EB0451B4EB115FF8
:104E1000D0D0A1EB045101F5801149085FEA3000C0
:104E200001EB04510ED350F1000038BF12FA0EFE10
:104E300008D1BDE81040C9E7401C38BF5FEA420214
:104E4000CAD1C3E7BDE810404FEA410313F5001F84
:104E500038BF7047A1F1C04100F072BB9EEA445FC9
:104E600008D011EA5E0FBDE8104004BF01F0004118
:104E700000207047BDE8104070B500F013FB00BF84
:104E800064FBBE3E0000E0FF491058BFC1F1404145
:104E90005B1058BFC3F140438B42EFF30080704773
:104EA0002DE9C04130B4DFF8A0C23CEA111418BFAC
:104EB0003CEA131400F0EC8081EA03051CEA1114AB
:104EC00044EAD57418BF1CEA131500F0C780A4EBA0
:104ED00005044FF0004545EAC12145EAC32341EAF4
:104EE000505143EA525304F17F74994204F500345F
:104EF0004FEAC0204FEAC22208BF904200F09C80D7
:104F00004FEA13650FF24016765D4FEA134506FB34
:104F100005F7C7F1807706FB07F74FEAD737A7FBFE
:104F200003687642C8F58038A7FB06CE38BFA8F1E3
:104F3000010807FB08E64FF0000EA6FB028CE6FB1B
:104F400003CEDCF1000CCEF1004E38BFAEF1010E05
:104F5000A6FB0C584FF000074FF00005E6FB0E874C
:104F6000A1FB08C6A0FB07CE16EB0E0645F1000517
:104F7000E1FB076515F1E04E7EBFA4F580345FEAE2
:104F800046066D4116F1800745F100054FEA1727E7
:104F90004FEA066647EA0567A6F1DE46B6F1805F8E
:104FA0004FEA15251FD9384624F0010C05EBC471D2
:104FB000BCF1FE6F01EB0C1102D8F0BCBDE8008122
:104FC00024425CBF01F5801E9EEAC47F02D4F0BC7F
:104FD000BDE80081244238D4F0BCA1F1C041BDE855
:104FE000004100F0ADBA4FEAD22242EA43524FEA02
:104FF000D323A7FB02864FEAD02040EA415007FBAB
:1050000003661EEA0E0F4FEAD12105FB026658BF68
:10501000A6EB0056B6EB00564FEA520E4EEAC37EA0
:1050200018EB0E0E56EB530EBDD518EB02085E4181
:105030007F1C55F10005B6E74FF480154FF00007CF
:105040004FF000064FF00008ADE7F0BC4FF0000055
:1050500001F1C04101F00041BDE8008111EA0C1FDF
:105060000CEA131500D00CE013EA0C1F00F02580A9
:105070004FF00000F0BC81EA030101F00041BDE8FF
:105080000081F0BCBDE8004181EA030100F058BA9C
:10509000F0BCBDE8004170B500F004FA097EFC3EAA
:1050A00000F007B881EA03014FF0000001F0004171
:1050B000704781EA030100F043BAF0BCBDE800414B
:1050C0004FF0000021497047FFFDFBF9F7F5F4F2BE
:1050D000F0EEEDEBE9E8E6E4E3E1E0DEDDDBDAD893
:1050E000D7D5D4D3D1D0CFCDCCCBCAC8C7C6C5C4F1
:1050F000C2C1C0BFBEBDBCBBBAB9B8B7B6B5B4B308
:10510000B2B1B0AFAEADACABAAA9A8A8A7A6A5A4F2
:10511000A3A3A2A1A09F9F9E9D9C9C9B9A999998B6
:105120009797969595949393929191908F8F8E8E59
:105130008D8C8C8B8B8A89898888878786858584E6
:1051400084838382828181800000FF070000F87FD2
:1051500051EA030C17D41CF5801F58BFBCF5801F03
:1051600000F10680994218BF704708BF904270470F
:1051700007D711F5801F58BF13F5801F19D4994226
:105180007047894270471CF5801F08D5BCF5801F09
:10519000F7D58B4218BF704708BF824270474FF463
:1051A000001C1CEB410F38BF1CEB430F01D28B429C
:1051B000704770B500F076F9922449004FF0005125
:1051C0004FF08053FFF760BE4FEA41034FEA53535D
:1051D000A3F58063D3F11E03C8BFD3F1210C0CDD0E
:1051E0004FF0004242EAC12242EA505232FA03FC36
:1051F0008CEAE17CACEBE1707047102BC4BF00205F
:10520000704703F5787CBCF1FF3F04D06FF000429B
:1052100082EA2100704770B500F044F94992248079
:1052200000207047F2E700004FEA1153A3F58063B6
:10523000D3F11E03A8BFD3F1200C08DB4FF00042CE
:1052400042EAC12252EA505232FA03F07047094250
:105250000BD4102BC4BF0020704703F5787CBCF141
:10526000FF3F05D04FF0FF3070474FF00000704710
:1052700070B500F017F900BF4992248000207047F4
:10528000F0E710F0004248BF4042B0FA80F310FA55
:1052900003F10AD0C3F11D0303F580634FEA4150C7
:1052A00002EB035202EBD12170474FF00000704730
:1052B000B0FA80F310FA03F10AD0C3F11D0303F52D
:1052C00080634FEA41504FEA035202EBD12170470D
:1052D0004FF000007047000051EA030C17D41CF592
:1052E000801F58BFBCF5801F00F10680994218BF8F
:1052F000704708BF9042704707D711F5801F58BF0D
:1053000013F5801F19D499427047894270471CF5E4
:10531000801F08D5BCF5801FF7D58B4218BF70479A
:1053200008BF824270474FF4001C1CEB410F38BF8E
:105330001CEB430F01D28B42704770B500F0B2F8FE
:10534000922449004FF000514FF08053FFF79CBD6D
:10535000DFF848C170B51CEA111E1EBF1CEA131508
:105360009EEA0C0F95EA0C0F00F06F8081EA0304AF
:1053700023EA4C134EEAD47E21EA4C1141F4801109
:1053800043F48013AE44A1FB024CA0FB0365AEF1D5
:105390007F7E361955EB0C05A1FB034C4CF1000345
:1053A000A0FB021C16EB0C06654153F100030942F9
:1053B00018BF46F0010613F4007F0BD14FEA03310A
:1053C0004FEA0530340341EA155140EA16506FF0B8
:1053D00003020AE04FEAC3214FEAC520F40241EA82
:1053E000555140EA56506FF0020202EB2E4201EB9B
:1053F000025585EACE710AD05FEA440C18BF24F04A
:10540000004450F1000041F1000120EAD47040F264
:10541000FE7C624500D270BDA84214BF4FF08044AC
:105420004FF04044002E08BF0024BEF1806FA8BF9B
:10543000A1F1C041BDE8704080F282804FF00000D1
:1054400001F1C04101F0004170479EEA0C0F0CEAE7
:10545000131518BF95EA0C0F06D04FF0000081EA33
:10546000030E0EF0004170BD00F01CF88900013EF3
:1054700000F007B800F009B84FEA430C5FEA5C5C43
:1054800008D081EA030100F05BB84FEA410C5FEA03
:105490005C5CF6D14FF00000014970470000FF0747
:1054A0000000F87F0EF1020E2EF0030E5EF8046B82
:1054B000364205D4012A43EB030515F5001F12D827
:1054C000012841EB010C1CF5001F0CD80ED14FEA4E
:1054D000D17C15F5001F0CEB4C0C0CF1020C08BF35
:1054E0004CEBD37C04E04FF0080C01E04FEAD37C96
:1054F0000CEB4C0526FA05F606F00706B6F1040C8F
:1055000006D20EEB860CBDE870404CF0010C6047F3
:10551000DFE80CF0090B02024FF000414FF00000F1
:10552000A1F5002170BD19461046012851EB010478
:1055300018BFD4F5001484BF002001F0004170BDF5
:105540000808A0F500114FEA3101704753EA010C39
:1055500017D41CF5801F58BFBCF5801F00F10680D2
:105560008B4218BF704708BF8242704707D713F5B8
:10557000801F58BF11F5801F19D48B4270479B4282
:1055800070471CF5801F08D5BCF5801FF7D59942E0
:1055900018BF704708BF904270474FF4001C1CEBC7
:1055A000430F38BF1CEB410F01D2994270470FB433
:1055B0000CBC03BCFFF7C1BE91EA030F10B581F02C
:1055C00000413FF5C1AB83F0004300F009B8000093
:1055D00010B591EA030F48BF83F000433FF5B4AB29
:1055E000841A71EB030C07D212198CF0004C43EBB8
:1055F0000C03001B61EB0C01DFF8A4E14FEA11542E
:10560000A4EB135C1EEA430F18BF9EEA445F00F050
:10561000B08023EA6E03524221EA0451C3EB6E03C9
:1056200038BF5B1EDCF1200E25D322FA0CFE10EBF6
:105630000E0043FA0CFE41EB0E01CCF1200E03FAF2
:105640000EFE10EB0E0051F10001CCF1200E29D41A
:1056500012FA0EF201EB0451BDE8104058BF70473A
:10566000401C1CBFB2F1004F704700280CBF491C02
:1056700020F00100704712EB020E43EB030218BF4B
:105680004FF0010E4EEA4202ACF1200CDCF11E0E8E
:1056900054D943FA0CFE10EB0E0051F1FF31CCF15E
:1056A0001E0ED5D50EF1010E12FA0EFE404141EB51
:1056B000010101EB445C5FEA5C5C10D910EBDE7029
:1056C00001EB045138BFBEF1004FBDE8104018BFD8
:1056D000704700280CBF491C20F00100704730D2F1
:1056E0004FEAD42C11F5001124F400641BD0B1FA58
:1056F00081F20B3AA41AA41ED2F12003914030FA91
:1057000003F31943904001EBCC71002C01EB0451E1
:10571000BDE81040A8BF704701F1C0414FF0000044
:1057200001F000417047B0FA80F310FA03F100D1A4
:1057300010BDE41A173C4805C90AE4E701EB04511F
:1057400010BD491001EB0451BDE810404FEA300094
:1057500002E04FF0000170474A0008BF0042F8D055
:10576000B2F5001F28BF704701F000414FF0000064
:1057700070479EEA445F07D011EA5E0FBDE8104013
:1057800004BF002100207047BDE8104070B5FFF74E
:1057900089FE00BF40DFF63E83F0004110467047AF
:1057A0000000E0FF43004FEAD30C4FEA3C0C4340BB
:1057B0001FBF40070CF1605113F0FE4F70471CF003
:1057C000006F03D100200CF0004170470CF0004343
:1057D00043EA507010B540EACC0000F00EF800BF6C
:1057E000000000924FEA0001FFF7AABE4FF000410F
:1057F0004FF00000A1F5002170470EF1020E2EF0CF
:10580000030E5EF8044B244204D44FEA4102B2F185
:105810007F4F11D84FEA4003B3F17F4F0CD80ED120
:105820004FEAD07CB2F17F4F0CEB4C0C0CF1020C28
:1058300008BF4CEBD17C04E04FF0080C01E04FEACC
:10584000D17C0CEB4C0324FA03F404F00704B4F10C
:10585000040C06D20EEB840CBDE810404CF0010C99
:105860006047DFE80CF0070802024FF00040A0F5A7
:10587000800010BD0846420018BFD2F1807288BF78
:1058800000F0004010BD4FF04070E1EE100A70478C
:10589000FF2141EAD050C0057047FDF7F8B800007D
:1058A0004FBB610567ACDD3F182D4454FB21E93F38
:1058B0009BF681D20B73EF3F182D4454FB21F93F27
:1058C000E2652F227F2B7A3C075C143326A6813CAD
:1058D000BDCBF07A8807703C075C143326A6913C58
:1058E000C4EB98999999C9BF711623FEC671BCBFC4
:1058F0006D9A74AFF2B0B3BF9AFDDE522DDEADBF2C
:105900002F6C6A2C44B4A2BF0D5555555555D53F43
:10591000FF8300922449C23F6E204CC5CD45B73F5E
:10592000513DD0A0660DB13FEB0D76244B7BA93FD6
:1059300011DA22E33AAD903F000000000000E03FA2
:10594000000000000000E0BF0000E0FE422EE63F45
:105950000000E0FE422EE6BF763C7935EF39EA3DA5
:10596000763C7935EF39EABD3E5555555555C53F1D
:1059700093BDBE166CC166BF2CDE25AF6A56113FC3
:10598000F16BD2C541BDBBBED0A4BE726937663EC5
:105990004C5555555555A53F7751C1166CC156BF4D
:1059A0009015CB19A001FA3EAD529C804F7E92BE5D
:1059B000C4B1B4BD9EEE213ED43888BEE9FAA8BD7C
:1059C00004FA97999999D93FAF788E1DC571CC3F4C
:1059D0009FC678D0099AC33F935555555555E53F15
:1059E000599322942449D23FDE03CB966446C73FA5
:1059F00044523EDF12F1C23F0000000000000000F0
:105A000000004054FB21F93F3163621A61B4D03D7C
:105A10000000601A61B4D03D7370032E8A19A33B55
:105A20000000002E8A19A33BC14920259A837B39A7
:105A300000000000000000006E83F9A22915444E0A
:105A4000D15727FCC0DD34F5999562DB4190433C8A
:105A5000AB6351FE61C5BBDE3A6E24B7E0D24D4266
:105A6000EA2E49061C92D1091CEB1DFE3EA729B166
:105A7000F53582E88444BB2E26709CE9417E5FB4F4
:105A800039D69139F43953838B5F849C3B28F9BD17
:105A9000FF97F81F0F9805DE8B112FEF1F6D0A5A25
:105AA000CF7E366DB709CB27663F464F2DEA5F9E06
:105AB000C7BA27757BF1E5EBF739073DEA92528AC1
:105AC000B15FFB6B085D8D1FA6F810111111813FAE
:105AD000D561C119A0012ABF7DFEB157E31DC73EA4
